{
  "_format": "hh-sol-artifact-1",
  "contractName": "WadLib",
  "sourceName": "contracts/WadLib.sol",
  "abi": [
    {
      "inputs": [],
      "name": "MULTIPLIER",
      "outputs": [
        {
          "internalType": "uint256",
          "name": "",
          "type": "uint256"
        }
      ],
      "stateMutability": "view",
      "type": "function"
    }
  ],
  "bytecode": "0x60c4610052600b82828239805160001a607314610045577f4e487b7100000000000000000000000000000000000000000000000000000000600052600060045260246000fd5b30600052607381538281f3fe730000000000000000000000000000000000000000301460806040526004361060335760003560e01c8063059f8b16146038575b600080fd5b603e6052565b604051604991906075565b60405180910390f35b670de0b6b3a764000081565b6000819050919050565b606f81605e565b82525050565b6000602082019050608860008301846068565b9291505056fea2646970667358221220a034424253568c8621db4478d3bd70d6f402bdcef9673721ddd755c034dfde8c64736f6c634300080b0033",
  "linkReferences": {},
  "deployedLinkReferences": {}
}